{
  "contractName": "Attendence",
  "abi": [
    {
      "inputs": [],
      "name": "uploaddate",
      "outputs": [
        {
          "internalType": "uint256",
          "name": "",
          "type": "uint256"
        }
      ],
      "stateMutability": "view",
      "type": "function",
      "constant": true
    },
    {
      "inputs": [
        {
          "internalType": "uint256",
          "name": "_uploaddate",
          "type": "uint256"
        }
      ],
      "name": "setUpdateDate",
      "outputs": [],
      "stateMutability": "nonpayable",
      "type": "function"
    },
    {
      "inputs": [],
      "name": "getUploadDate",
      "outputs": [
        {
          "internalType": "uint256",
          "name": "_uploaddate",
          "type": "uint256"
        }
      ],
      "stateMutability": "view",
      "type": "function",
      "constant": true
    },
    {
      "inputs": [
        {
          "internalType": "string",
          "name": "_filehash",
          "type": "string"
        }
      ],
      "name": "setFile",
      "outputs": [],
      "stateMutability": "nonpayable",
      "type": "function"
    },
    {
      "inputs": [],
      "name": "getFile",
      "outputs": [
        {
          "internalType": "string",
          "name": "_filehash",
          "type": "string"
        }
      ],
      "stateMutability": "view",
      "type": "function",
      "constant": true
    }
  ],
  "bytecode": "0x608060405234801561001057600080fd5b50610792806100206000396000f3fe608060405234801561001057600080fd5b50600436106100575760003560e01c8063136cac421461005c5780632fa816921461007857806330b9e1991461009657806387872211146100b4578063e423c158146100d2575b600080fd5b610076600480360381019061007191906101f7565b6100ee565b005b6100806100f8565b60405161008d91906102b4565b60405180910390f35b61009e61018a565b6040516100ab91906102e5565b60405180910390f35b6100bc610190565b6040516100c991906102e5565b60405180910390f35b6100ec60048036038101906100e79190610435565b61019a565b005b8060018190555050565b606060008054610107906104ad565b80601f0160208091040260200160405190810160405280929190818152602001828054610133906104ad565b80156101805780601f1061015557610100808354040283529160200191610180565b820191906000526020600020905b81548152906001019060200180831161016357829003601f168201915b5050505050905090565b60015481565b6000600154905090565b80600090816101a9919061068a565b5050565b6000604051905090565b600080fd5b600080fd5b6000819050919050565b6101d4816101c1565b81146101df57600080fd5b50565b6000813590506101f1816101cb565b92915050565b60006020828403121561020d5761020c6101b7565b5b600061021b848285016101e2565b91505092915050565b600081519050919050565b600082825260208201905092915050565b60005b8381101561025e578082015181840152602081019050610243565b60008484015250505050565b6000601f19601f8301169050919050565b600061028682610224565b610290818561022f565b93506102a0818560208601610240565b6102a98161026a565b840191505092915050565b600060208201905081810360008301526102ce818461027b565b905092915050565b6102df816101c1565b82525050565b60006020820190506102fa60008301846102d6565b92915050565b600080fd5b600080fd5b7f4e487b7100000000000000000000000000000000000000000000000000000000600052604160045260246000fd5b6103428261026a565b810181811067ffffffffffffffff821117156103615761036061030a565b5b80604052505050565b60006103746101ad565b90506103808282610339565b919050565b600067ffffffffffffffff8211156103a05761039f61030a565b5b6103a98261026a565b9050602081019050919050565b82818337600083830152505050565b60006103d86103d384610385565b61036a565b9050828152602081018484840111156103f4576103f3610305565b5b6103ff8482856103b6565b509392505050565b600082601f83011261041c5761041b610300565b5b813561042c8482602086016103c5565b91505092915050565b60006020828403121561044b5761044a6101b7565b5b600082013567ffffffffffffffff811115610469576104686101bc565b5b61047584828501610407565b91505092915050565b7f4e487b7100000000000000000000000000000000000000000000000000000000600052602260045260246000fd5b600060028204905060018216806104c557607f821691505b6020821081036104d8576104d761047e565b5b50919050565b60008190508160005260206000209050919050565b60006020601f8301049050919050565b600082821b905092915050565b6000600883026105407fffffffffffffffffffffffffffffffffffffffffffffffffffffffffffffffff82610503565b61054a8683610503565b95508019841693508086168417925050509392505050565b6000819050919050565b600061058761058261057d846101c1565b610562565b6101c1565b9050919050565b6000819050919050565b6105a18361056c565b6105b56105ad8261058e565b848454610510565b825550505050565b600090565b6105ca6105bd565b6105d5818484610598565b505050565b5b818110156105f9576105ee6000826105c2565b6001810190506105db565b5050565b601f82111561063e5761060f816104de565b610618846104f3565b81016020851015610627578190505b61063b610633856104f3565b8301826105da565b50505b505050565b600082821c905092915050565b600061066160001984600802610643565b1980831691505092915050565b600061067a8383610650565b9150826002028217905092915050565b61069382610224565b67ffffffffffffffff8111156106ac576106ab61030a565b5b6106b682546104ad565b6106c18282856105fd565b600060209050601f8311600181146106f457600084156106e2578287015190505b6106ec858261066e565b865550610754565b601f198416610702866104de565b60005b8281101561072a57848901518255600182019150602085019450602081019050610705565b868310156107475784890151610743601f891682610650565b8355505b6001600288020188555050505b50505050505056fea26469706673582212205190a90dad3c72f4c2ab29620db1fbbcfc59b9b6dc8f6190adc4753b8118907764736f6c63430008110033",
  "immutableReferences": {},
  "source": "// SPDX-License-Identifier: GPL-3.0\r\n\r\npragma solidity >=0.7.0 <0.9.0;\r\n\r\n/** \r\n * @title Attendence\r\n */\r\ncontract Attendence {\r\n\r\n    string  filehash;\r\n    uint256 public uploaddate;\r\n\r\n    function setUpdateDate(uint256 _uploaddate) public {\r\n        uploaddate = _uploaddate;\r\n    }\r\n\r\n    function getUploadDate() public view returns (uint _uploaddate) {\r\n        return uploaddate;\r\n    }\r\n\r\n    function setFile(string memory _filehash)  public  {\r\n        filehash = _filehash;\r\n    }\r\n\r\n    function getFile() public view returns (string memory _filehash) {\r\n        return filehash;\r\n    }\r\n\r\n\r\n}",
  "sourcePath": "D:\\UMer Workspace\\EssexAttendenceContract\\contracts\\Attendence.sol",
  "compiler": {
    "name": "solc",
    "version": "0.8.17+commit.8df45f5f.Emscripten.clang"
  },
  "schemaVersion": "3.4.11",
  "updatedAt": "2022-12-01T06:03:25.003Z",
  "networkType": "ethereum",
  "devdoc": {
    "kind": "dev",
    "methods": {},
    "title": "Attendence",
    "version": 1
  },
  "userdoc": {
    "kind": "user",
    "methods": {},
    "version": 1
  }
}